00747no kids                             0000005002023-06-242023-06-25benedizzadf                         0837917430        website                                       website                                       64822d4ac6148@aluvegh.co.za                                             Guest Name is: benedizzadf                                                                                  2023-06-0814412TP000000500
00747no kids                             0000005002023-06-242023-06-25benedizzadf                         0837917430        website                                       website                                       64822d4ac6148@aluvegh.co.za                                             Guest Name is: benedizzadf                                                                                  2023-06-0814412GL000434.78
00747no kids                             0000005002023-06-242023-06-25benedizzadf                         0837917430        website                                       website                                       64822d4ac6148@aluvegh.co.za                                             Guest Name is: benedizzadf                                                                                  2023-06-0814412VT000065.22
00749Upstairs+King+Room                  0000005002023-06-252023-06-26benedizzadf                         0837917430        website                                       website                                       64822d9922c42@aluvegh.co.za                                             Guest Name is: benedizzadf                                                                                  2023-06-0814410TP000000500
00749Upstairs+King+Room                  0000005002023-06-252023-06-26benedizzadf                         0837917430        website                                       website                                       64822d9922c42@aluvegh.co.za                                             Guest Name is: benedizzadf                                                                                  2023-06-0814410GL000434.78
00749Upstairs+King+Room                  0000005002023-06-252023-06-26benedizzadf                         0837917430        website                                       website                                       64822d9922c42@aluvegh.co.za                                             Guest Name is: benedizzadf                                                                                  2023-06-0814410VT000065.22
00750Upstairs+King+Room2                 0000005002023-06-252023-06-26benedizzadf                         0837917430        website                                       website                                       64822da1a94d9@aluvegh.co.za                                             Guest Name is: benedizzadf                                                                                  2023-06-0814411TP000000500
00750Upstairs+King+Room2                 0000005002023-06-252023-06-26benedizzadf                         0837917430        website                                       website                                       64822da1a94d9@aluvegh.co.za                                             Guest Name is: benedizzadf                                                                                  2023-06-0814411GL000434.78
00750Upstairs+King+Room2                 0000005002023-06-252023-06-26benedizzadf                         0837917430        website                                       website                                       64822da1a94d9@aluvegh.co.za                                             Guest Name is: benedizzadf                                                                                  2023-06-0814411VT000065.22
