008139d849b66-7fa8-43c5-ba8a-7           0000005002023-07-022023-07-046246b2a7-503b-487d-bde5-a           +27837917430      website                                       website                                       649d2fa34a367@aluvegh.co.za                                             Guest Name is: benedizazz                                                                                   2023-06-2914508TP000001000
008139d849b66-7fa8-43c5-ba8a-7           0000005002023-07-022023-07-046246b2a7-503b-487d-bde5-a           +27837917430      website                                       website                                       649d2fa34a367@aluvegh.co.za                                             Guest Name is: benedizazz                                                                                   2023-06-2914508GL000869.57
008139d849b66-7fa8-43c5-ba8a-7           0000005002023-07-022023-07-046246b2a7-503b-487d-bde5-a           +27837917430      website                                       website                                       649d2fa34a367@aluvegh.co.za                                             Guest Name is: benedizazz                                                                                   2023-06-2914508VT000130.43
00814203d395b-0d51-4e5d-8fe7-7           0000005002023-07-022023-07-046246b2a7-503b-487d-bde5-a           +27837917430      website                                       website                                       649d310fa8066@aluvegh.co.za                                             Guest Name is: benedizazz                                                                                   2023-06-2914509TP000001000
00814203d395b-0d51-4e5d-8fe7-7           0000005002023-07-022023-07-046246b2a7-503b-487d-bde5-a           +27837917430      website                                       website                                       649d310fa8066@aluvegh.co.za                                             Guest Name is: benedizazz                                                                                   2023-06-2914509GL000869.57
00814203d395b-0d51-4e5d-8fe7-7           0000005002023-07-022023-07-046246b2a7-503b-487d-bde5-a           +27837917430      website                                       website                                       649d310fa8066@aluvegh.co.za                                             Guest Name is: benedizazz                                                                                   2023-06-2914509VT000130.43
008158b96d7aa-e350-4227-8b91-e           0000005002023-07-022023-07-046246b2a7-503b-487d-bde5-a           +27837917430      website                                       website                                       649d31435fd6b@aluvegh.co.za                                             Guest Name is: benedizazz                                                                                   2023-06-2914510TP000001000
008158b96d7aa-e350-4227-8b91-e           0000005002023-07-022023-07-046246b2a7-503b-487d-bde5-a           +27837917430      website                                       website                                       649d31435fd6b@aluvegh.co.za                                             Guest Name is: benedizazz                                                                                   2023-06-2914510GL000869.57
008158b96d7aa-e350-4227-8b91-e           0000005002023-07-022023-07-046246b2a7-503b-487d-bde5-a           +27837917430      website                                       website                                       649d31435fd6b@aluvegh.co.za                                             Guest Name is: benedizazz                                                                                   2023-06-2914510VT000130.43
