00734New Soap Room                       0000001232023-06-082023-06-09benedict                            0837917430        website                                       website                                       64816deda6ba9@aluvegh.co.za                                             Guest Name is: benedict                                                                                     2023-06-0814270TP000000123
00734New Soap Room                       0000001232023-06-082023-06-09benedict                            0837917430        website                                       website                                       64816deda6ba9@aluvegh.co.za                                             Guest Name is: benedict                                                                                     2023-06-0814270GL000106.96
00734New Soap Room                       0000001232023-06-082023-06-09benedict                            0837917430        website                                       website                                       64816deda6ba9@aluvegh.co.za                                             Guest Name is: benedict                                                                                     2023-06-0814270VT000016.04
00736dd8bb284-821f-47fc-b8bd-1           0000001002023-06-082023-06-09benedict                            0837917430        website                                       website                                       648174e380204@aluvegh.co.za                                             Guest Name is: benedict                                                                                     2023-06-0814409TP000000100
00736dd8bb284-821f-47fc-b8bd-1           0000001002023-06-082023-06-09benedict                            0837917430        website                                       website                                       648174e380204@aluvegh.co.za                                             Guest Name is: benedict                                                                                     2023-06-0814409GL000086.96
00736dd8bb284-821f-47fc-b8bd-1           0000001002023-06-082023-06-09benedict                            0837917430        website                                       website                                       648174e380204@aluvegh.co.za                                             Guest Name is: benedict                                                                                     2023-06-0814409VT000013.04
00739New Soap Room                       0000001232023-06-142023-06-15First timer                         09092392030       website                                       website                                       6481d00bbf6c6@aluvegh.co.za                                             Guest Name is: First timer                                                                                  2023-06-0814270TP000000123
00739New Soap Room                       0000001232023-06-142023-06-15First timer                         09092392030       website                                       website                                       6481d00bbf6c6@aluvegh.co.za                                             Guest Name is: First timer                                                                                  2023-06-0814270GL000106.96
00739New Soap Room                       0000001232023-06-142023-06-15First timer                         09092392030       website                                       website                                       6481d00bbf6c6@aluvegh.co.za                                             Guest Name is: First timer                                                                                  2023-06-0814270VT000016.04
