0081311134411-8658-413c-ae39-1           0000005002023-07-012023-07-056246b2a7-503b-487d-bde5-a           +27837917430      website                                       website                                       64a40c277f565@aluvegh.co.za                                             Guest Name is: benedizazz                                                                                   2023-06-2914512TP000002000
0081311134411-8658-413c-ae39-1           0000005002023-07-012023-07-056246b2a7-503b-487d-bde5-a           +27837917430      website                                       website                                       64a40c277f565@aluvegh.co.za                                             Guest Name is: benedizazz                                                                                   2023-06-2914512GL001739.13
0081311134411-8658-413c-ae39-1           0000005002023-07-012023-07-056246b2a7-503b-487d-bde5-a           +27837917430      website                                       website                                       64a40c277f565@aluvegh.co.za                                             Guest Name is: benedizazz                                                                                   2023-06-2914512VT000260.87
00814203d395b-0d51-4e5d-8fe7-7           0000005002023-07-022023-07-046246b2a7-503b-487d-bde5-a           +27837917430      website                                       website                                       649d310fa8066@aluvegh.co.za                                             Guest Name is: benedizazz                                                                                   2023-06-2914509TP000001000
00814203d395b-0d51-4e5d-8fe7-7           0000005002023-07-022023-07-046246b2a7-503b-487d-bde5-a           +27837917430      website                                       website                                       649d310fa8066@aluvegh.co.za                                             Guest Name is: benedizazz                                                                                   2023-06-2914509GL000869.57
00814203d395b-0d51-4e5d-8fe7-7           0000005002023-07-022023-07-046246b2a7-503b-487d-bde5-a           +27837917430      website                                       website                                       649d310fa8066@aluvegh.co.za                                             Guest Name is: benedizazz                                                                                   2023-06-2914509VT000130.43
008158b96d7aa-e350-4227-8b91-e           0000005002023-07-022023-07-046246b2a7-503b-487d-bde5-a           +27837917430      website                                       website                                       649d31435fd6b@aluvegh.co.za                                             Guest Name is: benedizazz                                                                                   2023-06-2914510TP000001000
008158b96d7aa-e350-4227-8b91-e           0000005002023-07-022023-07-046246b2a7-503b-487d-bde5-a           +27837917430      website                                       website                                       649d31435fd6b@aluvegh.co.za                                             Guest Name is: benedizazz                                                                                   2023-06-2914510GL000869.57
008158b96d7aa-e350-4227-8b91-e           0000005002023-07-022023-07-046246b2a7-503b-487d-bde5-a           +27837917430      website                                       website                                       649d31435fd6b@aluvegh.co.za                                             Guest Name is: benedizazz                                                                                   2023-06-2914510VT000130.43
