00758Upstairs+King+Room                  0000005002023-06-102023-06-11sasasas                             34343434          website                                       website                                       64849e43390e9@aluvegh.co.za                                             Guest Name is: sasasas                                                                                      2023-06-1014410TP000000500
00758Upstairs+King+Room                  0000005002023-06-102023-06-11sasasas                             34343434          website                                       website                                       64849e43390e9@aluvegh.co.za                                             Guest Name is: sasasas                                                                                      2023-06-1014410GL000434.78
00758Upstairs+King+Room                  0000005002023-06-102023-06-11sasasas                             34343434          website                                       website                                       64849e43390e9@aluvegh.co.za                                             Guest Name is: sasasas                                                                                      2023-06-1014410VT000065.22
00745no kids                             0000005002023-06-082023-06-09benedizzadf                         0837917430        website                                       website                                       64822cb6ccd05@aluvegh.co.za                                             Guest Name is: benedizzadf                                                                                  2023-06-0814412TP000000500
00745no kids                             0000005002023-06-082023-06-09benedizzadf                         0837917430        website                                       website                                       64822cb6ccd05@aluvegh.co.za                                             Guest Name is: benedizzadf                                                                                  2023-06-0814412GL000434.78
00745no kids                             0000005002023-06-082023-06-09benedizzadf                         0837917430        website                                       website                                       64822cb6ccd05@aluvegh.co.za                                             Guest Name is: benedizzadf                                                                                  2023-06-0814412VT000065.22
