00745no kids                             0000005002023-06-082023-06-09benedizzadf                         0837917430        website                                       website                                       64822cb6ccd05@aluvegh.co.za                                             Guest Name is: benedizzadf                                                                                  2023-06-0814412TP000000500
00745no kids                             0000005002023-06-082023-06-09benedizzadf                         0837917430        website                                       website                                       64822cb6ccd05@aluvegh.co.za                                             Guest Name is: benedizzadf                                                                                  2023-06-0814412GL000434.78
00745no kids                             0000005002023-06-082023-06-09benedizzadf                         0837917430        website                                       website                                       64822cb6ccd05@aluvegh.co.za                                             Guest Name is: benedizzadf                                                                                  2023-06-0814412VT000065.22
