00745no kids                             0000005002023-06-082023-06-15benedizzadf                         0837917430        website                                       website                                       64822cb6ccd05@aluvegh.co.za                                             Guest Name is: benedizzadf                                                                                  2023-06-0814412TP000003500
00745no kids                             0000005002023-06-082023-06-15benedizzadf                         0837917430        website                                       website                                       64822cb6ccd05@aluvegh.co.za                                             Guest Name is: benedizzadf                                                                                  2023-06-0814412GL003043.48
00745no kids                             0000005002023-06-082023-06-15benedizzadf                         0837917430        website                                       website                                       64822cb6ccd05@aluvegh.co.za                                             Guest Name is: benedizzadf                                                                                  2023-06-0814412VT000456.52
00758Upstairs+King+Room                  0000005002023-06-102023-06-12benzito                             0819203923        website                                       website                                       64849e43390e9@aluvegh.co.za                                             Guest Name is: sasasas                                                                                      2023-06-1014410TP000001000
00758Upstairs+King+Room                  0000005002023-06-102023-06-12benzito                             0819203923        website                                       website                                       64849e43390e9@aluvegh.co.za                                             Guest Name is: sasasas                                                                                      2023-06-1014410GL000869.57
00758Upstairs+King+Room                  0000005002023-06-102023-06-12benzito                             0819203923        website                                       website                                       64849e43390e9@aluvegh.co.za                                             Guest Name is: sasasas                                                                                      2023-06-1014410VT000130.43
