00803Upstairs+King+Room2                 0000005002023-06-282023-06-29new name                            +83791743035      website                                       website                                       649878c159600@aluvegh.co.za                                             Guest Name is: new name                                                                                     2023-06-2514505TP000000500
00803Upstairs+King+Room2                 0000005002023-06-282023-06-29new name                            +83791743035      website                                       website                                       649878c159600@aluvegh.co.za                                             Guest Name is: new name                                                                                     2023-06-2514505GL000434.78
00803Upstairs+King+Room2                 0000005002023-06-282023-06-29new name                            +83791743035      website                                       website                                       649878c159600@aluvegh.co.za                                             Guest Name is: new name                                                                                     2023-06-2514505VT000065.22
00810Upstairs+King+Room2                 0000005002023-06-282023-07-020e1fb892-16c2-4e5e-a601-0           0837917418        website                                       website                                       6499c5572032f@aluvegh.co.za                                             Guest Name is: 0e1fb892-16c2-4e5e-a601-0                                                                    2023-06-2614505TP000002000
00810Upstairs+King+Room2                 0000005002023-06-282023-07-020e1fb892-16c2-4e5e-a601-0           0837917418        website                                       website                                       6499c5572032f@aluvegh.co.za                                             Guest Name is: 0e1fb892-16c2-4e5e-a601-0                                                                    2023-06-2614505GL001739.13
00810Upstairs+King+Room2                 0000005002023-06-282023-07-020e1fb892-16c2-4e5e-a601-0           0837917418        website                                       website                                       6499c5572032f@aluvegh.co.za                                             Guest Name is: 0e1fb892-16c2-4e5e-a601-0                                                                    2023-06-2614505VT000260.87
00811Upstairs+King+Room2                 0000005002023-06-282023-07-020e1fb892-16c2-4e5e-a601-0           0837917418        website                                       website                                       6499c6d21460d@aluvegh.co.za                                             Guest Name is: 0e1fb892-16c2-4e5e-a601-0                                                                    2023-06-2614505TP000002000
00811Upstairs+King+Room2                 0000005002023-06-282023-07-020e1fb892-16c2-4e5e-a601-0           0837917418        website                                       website                                       6499c6d21460d@aluvegh.co.za                                             Guest Name is: 0e1fb892-16c2-4e5e-a601-0                                                                    2023-06-2614505GL001739.13
00811Upstairs+King+Room2                 0000005002023-06-282023-07-020e1fb892-16c2-4e5e-a601-0           0837917418        website                                       website                                       6499c6d21460d@aluvegh.co.za                                             Guest Name is: 0e1fb892-16c2-4e5e-a601-0                                                                    2023-06-2614505VT000260.87
00812Upstairs+King+Room2                 0000005002023-06-282023-07-020e1fb892-16c2-4e5e-a601-0           0837917418        website                                       website                                       6499c70488c82@aluvegh.co.za                                             Guest Name is: 0e1fb892-16c2-4e5e-a601-0                                                                    2023-06-2614505TP000002000
00812Upstairs+King+Room2                 0000005002023-06-282023-07-020e1fb892-16c2-4e5e-a601-0           0837917418        website                                       website                                       6499c70488c82@aluvegh.co.za                                             Guest Name is: 0e1fb892-16c2-4e5e-a601-0                                                                    2023-06-2614505GL001739.13
00812Upstairs+King+Room2                 0000005002023-06-282023-07-020e1fb892-16c2-4e5e-a601-0           0837917418        website                                       website                                       6499c70488c82@aluvegh.co.za                                             Guest Name is: 0e1fb892-16c2-4e5e-a601-0                                                                    2023-06-2614505VT000260.87
00823b5bf1ef1-1a20-47fd-bd46-2           0000002502023-06-292023-06-306a6547ff-5284-45d1-9f54-3           +27837917430      website                                       website                                       649d57cd49040@aluvegh.co.za                                             Guest Name is: 6c0b3f87-e4a7-400d-ba88-d                                                                    2023-06-2914519TP000000250
00823b5bf1ef1-1a20-47fd-bd46-2           0000002502023-06-292023-06-306a6547ff-5284-45d1-9f54-3           +27837917430      website                                       website                                       649d57cd49040@aluvegh.co.za                                             Guest Name is: 6c0b3f87-e4a7-400d-ba88-d                                                                    2023-06-2914519GL000217.39
00823b5bf1ef1-1a20-47fd-bd46-2           0000002502023-06-292023-06-306a6547ff-5284-45d1-9f54-3           +27837917430      website                                       website                                       649d57cd49040@aluvegh.co.za                                             Guest Name is: 6c0b3f87-e4a7-400d-ba88-d                                                                    2023-06-2914519VT000032.61
0082459ef796b-cb67-4e86-b629-3           0000002502023-06-292023-06-306a6547ff-5284-45d1-9f54-3           +27837917430      website                                       website                                       649d58245f018@aluvegh.co.za                                             Guest Name is: 6a6547ff-5284-45d1-9f54-3                                                                    2023-06-2914520TP000000250
0082459ef796b-cb67-4e86-b629-3           0000002502023-06-292023-06-306a6547ff-5284-45d1-9f54-3           +27837917430      website                                       website                                       649d58245f018@aluvegh.co.za                                             Guest Name is: 6a6547ff-5284-45d1-9f54-3                                                                    2023-06-2914520GL000217.39
0082459ef796b-cb67-4e86-b629-3           0000002502023-06-292023-06-306a6547ff-5284-45d1-9f54-3           +27837917430      website                                       website                                       649d58245f018@aluvegh.co.za                                             Guest Name is: 6a6547ff-5284-45d1-9f54-3                                                                    2023-06-2914520VT000032.61
008161618dcd1-4862-4717-89dc-1           0000005002023-07-022023-07-046a6547ff-5284-45d1-9f54-3           +27837917430      website                                       website                                       649d315b982ce@aluvegh.co.za                                             Guest Name is: benedizazz                                                                                   2023-06-2914511TP000001000
008161618dcd1-4862-4717-89dc-1           0000005002023-07-022023-07-046a6547ff-5284-45d1-9f54-3           +27837917430      website                                       website                                       649d315b982ce@aluvegh.co.za                                             Guest Name is: benedizazz                                                                                   2023-06-2914511GL000869.57
008161618dcd1-4862-4717-89dc-1           0000005002023-07-022023-07-046a6547ff-5284-45d1-9f54-3           +27837917430      website                                       website                                       649d315b982ce@aluvegh.co.za                                             Guest Name is: benedizazz                                                                                   2023-06-2914511VT000130.43
0081711134411-8658-413c-ae39-1           0000005002023-07-022023-07-047c1e77b4-f6b9-4b85-9e0a-1           +27789009655      website                                       website                                       649d31682c7e7@aluvegh.co.za                                             Guest Name is: 7c1e77b4-f6b9-4b85-9e0a-1                                                                    2023-06-2914512TP000001000
0081711134411-8658-413c-ae39-1           0000005002023-07-022023-07-047c1e77b4-f6b9-4b85-9e0a-1           +27789009655      website                                       website                                       649d31682c7e7@aluvegh.co.za                                             Guest Name is: 7c1e77b4-f6b9-4b85-9e0a-1                                                                    2023-06-2914512GL000869.57
0081711134411-8658-413c-ae39-1           0000005002023-07-022023-07-047c1e77b4-f6b9-4b85-9e0a-1           +27789009655      website                                       website                                       649d31682c7e7@aluvegh.co.za                                             Guest Name is: 7c1e77b4-f6b9-4b85-9e0a-1                                                                    2023-06-2914512VT000130.43
008187d29e35f-5217-4d59-81ad-a           0000005002023-07-022023-07-046a6547ff-5284-45d1-9f54-3           +27837917430      website                                       website                                       649d31750c53f@aluvegh.co.za                                             Guest Name is: benedizazz                                                                                   2023-06-2914513TP000001000
008187d29e35f-5217-4d59-81ad-a           0000005002023-07-022023-07-046a6547ff-5284-45d1-9f54-3           +27837917430      website                                       website                                       649d31750c53f@aluvegh.co.za                                             Guest Name is: benedizazz                                                                                   2023-06-2914513GL000869.57
008187d29e35f-5217-4d59-81ad-a           0000005002023-07-022023-07-046a6547ff-5284-45d1-9f54-3           +27837917430      website                                       website                                       649d31750c53f@aluvegh.co.za                                             Guest Name is: benedizazz                                                                                   2023-06-2914513VT000130.43
00819e0b87053-a818-4ec7-8078-0           0000005002023-07-022023-07-046a6547ff-5284-45d1-9f54-3           +27837917430      website                                       website                                       649d318457bf7@aluvegh.co.za                                             Guest Name is: benedizazz                                                                                   2023-06-2914514TP000001000
00819e0b87053-a818-4ec7-8078-0           0000005002023-07-022023-07-046a6547ff-5284-45d1-9f54-3           +27837917430      website                                       website                                       649d318457bf7@aluvegh.co.za                                             Guest Name is: benedizazz                                                                                   2023-06-2914514GL000869.57
00819e0b87053-a818-4ec7-8078-0           0000005002023-07-022023-07-046a6547ff-5284-45d1-9f54-3           +27837917430      website                                       website                                       649d318457bf7@aluvegh.co.za                                             Guest Name is: benedizazz                                                                                   2023-06-2914514VT000130.43
008206a95910c-007a-4936-b671-2           0000005002023-07-022023-07-046a6547ff-5284-45d1-9f54-3           +27837917430      website                                       website                                       649d3197e2cfe@aluvegh.co.za                                             Guest Name is: benedizazz                                                                                   2023-06-2914515TP000001000
008206a95910c-007a-4936-b671-2           0000005002023-07-022023-07-046a6547ff-5284-45d1-9f54-3           +27837917430      website                                       website                                       649d3197e2cfe@aluvegh.co.za                                             Guest Name is: benedizazz                                                                                   2023-06-2914515GL000869.57
008206a95910c-007a-4936-b671-2           0000005002023-07-022023-07-046a6547ff-5284-45d1-9f54-3           +27837917430      website                                       website                                       649d3197e2cfe@aluvegh.co.za                                             Guest Name is: benedizazz                                                                                   2023-06-2914515VT000130.43
00821edcead52-3c7f-4ed5-b619-c           0000005002023-07-022023-07-046a6547ff-5284-45d1-9f54-3           +27837917430      website                                       website                                       649d3202ea7d0@aluvegh.co.za                                             Guest Name is: benedizazz                                                                                   2023-06-2914517TP000001000
00821edcead52-3c7f-4ed5-b619-c           0000005002023-07-022023-07-046a6547ff-5284-45d1-9f54-3           +27837917430      website                                       website                                       649d3202ea7d0@aluvegh.co.za                                             Guest Name is: benedizazz                                                                                   2023-06-2914517GL000869.57
00821edcead52-3c7f-4ed5-b619-c           0000005002023-07-022023-07-046a6547ff-5284-45d1-9f54-3           +27837917430      website                                       website                                       649d3202ea7d0@aluvegh.co.za                                             Guest Name is: benedizazz                                                                                   2023-06-2914517VT000130.43
0082238bd4275-6990-4e8f-a550-e           0000005002023-07-022023-07-046a6547ff-5284-45d1-9f54-3           +27837917430      website                                       website                                       649d334a5cca2@aluvegh.co.za                                             Guest Name is: benedizazz                                                                                   2023-06-2914518TP000001000
0082238bd4275-6990-4e8f-a550-e           0000005002023-07-022023-07-046a6547ff-5284-45d1-9f54-3           +27837917430      website                                       website                                       649d334a5cca2@aluvegh.co.za                                             Guest Name is: benedizazz                                                                                   2023-06-2914518GL000869.57
0082238bd4275-6990-4e8f-a550-e           0000005002023-07-022023-07-046a6547ff-5284-45d1-9f54-3           +27837917430      website                                       website                                       649d334a5cca2@aluvegh.co.za                                             Guest Name is: benedizazz                                                                                   2023-06-2914518VT000130.43
00807Upstairs+King+Room2                 0000005002023-07-172023-07-18Benedict                            0837917431        website                                       website                                       6499b8d9a4745@aluvegh.co.za                                             Guest Name is: Benedict                                                                                     2023-06-2614505TP000000500
00807Upstairs+King+Room2                 0000005002023-07-172023-07-18Benedict                            0837917431        website                                       website                                       6499b8d9a4745@aluvegh.co.za                                             Guest Name is: Benedict                                                                                     2023-06-2614505GL000434.78
00807Upstairs+King+Room2                 0000005002023-07-172023-07-18Benedict                            0837917431        website                                       website                                       6499b8d9a4745@aluvegh.co.za                                             Guest Name is: Benedict                                                                                     2023-06-2614505VT000065.22
00808Upstairs+King+Room2                 0000005002023-07-172023-07-18Benedict                            0837917431        website                                       website                                       6499b8e3364e6@aluvegh.co.za                                             Guest Name is: Benedict                                                                                     2023-06-2614505TP000000500
00808Upstairs+King+Room2                 0000005002023-07-172023-07-18Benedict                            0837917431        website                                       website                                       6499b8e3364e6@aluvegh.co.za                                             Guest Name is: Benedict                                                                                     2023-06-2614505GL000434.78
00808Upstairs+King+Room2                 0000005002023-07-172023-07-18Benedict                            0837917431        website                                       website                                       6499b8e3364e6@aluvegh.co.za                                             Guest Name is: Benedict                                                                                     2023-06-2614505VT000065.22
00809Upstairs+King+Room2                 0000005002023-07-172023-07-18Benedict                            0837917431        website                                       website                                       6499b9dc2b758@aluvegh.co.za                                             Guest Name is: Benedict                                                                                     2023-06-2614505TP000000500
00809Upstairs+King+Room2                 0000005002023-07-172023-07-18Benedict                            0837917431        website                                       website                                       6499b9dc2b758@aluvegh.co.za                                             Guest Name is: Benedict                                                                                     2023-06-2614505GL000434.78
00809Upstairs+King+Room2                 0000005002023-07-172023-07-18Benedict                            0837917431        website                                       website                                       6499b9dc2b758@aluvegh.co.za                                             Guest Name is: Benedict                                                                                     2023-06-2614505VT000065.22
00806Upstairs+King+Room2                 0000005002023-07-252023-07-26new name                            +83791743035      website                                       website                                       6499b69780b64@aluvegh.co.za                                             Guest Name is: new name                                                                                     2023-06-2614505TP000000500
00806Upstairs+King+Room2                 0000005002023-07-252023-07-26new name                            +83791743035      website                                       website                                       6499b69780b64@aluvegh.co.za                                             Guest Name is: new name                                                                                     2023-06-2614505GL000434.78
00806Upstairs+King+Room2                 0000005002023-07-252023-07-26new name                            +83791743035      website                                       website                                       6499b69780b64@aluvegh.co.za                                             Guest Name is: new name                                                                                     2023-06-2614505VT000065.22
00804Upstairs+King+Room2                 0000005002023-07-262023-07-27Benzo                               +83791743034      website                                       website                                       64984b90831cc@aluvegh.co.za                                             Guest Name is: Benzo                                                                                        2023-06-2514505TP000000500
00804Upstairs+King+Room2                 0000005002023-07-262023-07-27Benzo                               +83791743034      website                                       website                                       64984b90831cc@aluvegh.co.za                                             Guest Name is: Benzo                                                                                        2023-06-2514505GL000434.78
00804Upstairs+King+Room2                 0000005002023-07-262023-07-27Benzo                               +83791743034      website                                       website                                       64984b90831cc@aluvegh.co.za                                             Guest Name is: Benzo                                                                                        2023-06-2514505VT000065.22
00805Upstairs+King+Room2                 0000005002023-07-262023-07-27Benzo                               +83791743034      website                                       website                                       649933208be11@aluvegh.co.za                                             Guest Name is: Benzo                                                                                        2023-06-2614505TP000000500
00805Upstairs+King+Room2                 0000005002023-07-262023-07-27Benzo                               +83791743034      website                                       website                                       649933208be11@aluvegh.co.za                                             Guest Name is: Benzo                                                                                        2023-06-2614505GL000434.78
00805Upstairs+King+Room2                 0000005002023-07-262023-07-27Benzo                               +83791743034      website                                       website                                       649933208be11@aluvegh.co.za                                             Guest Name is: Benzo                                                                                        2023-06-2614505VT000065.22
