00803Upstairs+King+Room2                 0000005002023-06-282023-06-29new name                            +83791743035      website                                       website                                       649878c159600@aluvegh.co.za                                             Guest Name is: new name                                                                                     2023-06-2514505TP000000500
00803Upstairs+King+Room2                 0000005002023-06-282023-06-29new name                            +83791743035      website                                       website                                       649878c159600@aluvegh.co.za                                             Guest Name is: new name                                                                                     2023-06-2514505GL000434.78
00803Upstairs+King+Room2                 0000005002023-06-282023-06-29new name                            +83791743035      website                                       website                                       649878c159600@aluvegh.co.za                                             Guest Name is: new name                                                                                     2023-06-2514505VT000065.22
00812Upstairs+King+Room2                 0000005002023-06-282023-07-020e1fb892-16c2-4e5e-a601-0           0837917418        website                                       website                                       6499c70488c82@aluvegh.co.za                                             Guest Name is: 0e1fb892-16c2-4e5e-a601-0                                                                    2023-06-2614505TP000002000
00812Upstairs+King+Room2                 0000005002023-06-282023-07-020e1fb892-16c2-4e5e-a601-0           0837917418        website                                       website                                       6499c70488c82@aluvegh.co.za                                             Guest Name is: 0e1fb892-16c2-4e5e-a601-0                                                                    2023-06-2614505GL001739.13
00812Upstairs+King+Room2                 0000005002023-06-282023-07-020e1fb892-16c2-4e5e-a601-0           0837917418        website                                       website                                       6499c70488c82@aluvegh.co.za                                             Guest Name is: 0e1fb892-16c2-4e5e-a601-0                                                                    2023-06-2614505VT000260.87
00811Upstairs+King+Room2                 0000005002023-06-282023-07-020e1fb892-16c2-4e5e-a601-0           0837917418        website                                       website                                       6499c6d21460d@aluvegh.co.za                                             Guest Name is: 0e1fb892-16c2-4e5e-a601-0                                                                    2023-06-2614505TP000002000
00811Upstairs+King+Room2                 0000005002023-06-282023-07-020e1fb892-16c2-4e5e-a601-0           0837917418        website                                       website                                       6499c6d21460d@aluvegh.co.za                                             Guest Name is: 0e1fb892-16c2-4e5e-a601-0                                                                    2023-06-2614505GL001739.13
00811Upstairs+King+Room2                 0000005002023-06-282023-07-020e1fb892-16c2-4e5e-a601-0           0837917418        website                                       website                                       6499c6d21460d@aluvegh.co.za                                             Guest Name is: 0e1fb892-16c2-4e5e-a601-0                                                                    2023-06-2614505VT000260.87
00810Upstairs+King+Room2                 0000005002023-06-282023-07-020e1fb892-16c2-4e5e-a601-0           0837917418        website                                       website                                       6499c5572032f@aluvegh.co.za                                             Guest Name is: 0e1fb892-16c2-4e5e-a601-0                                                                    2023-06-2614505TP000002000
00810Upstairs+King+Room2                 0000005002023-06-282023-07-020e1fb892-16c2-4e5e-a601-0           0837917418        website                                       website                                       6499c5572032f@aluvegh.co.za                                             Guest Name is: 0e1fb892-16c2-4e5e-a601-0                                                                    2023-06-2614505GL001739.13
00810Upstairs+King+Room2                 0000005002023-06-282023-07-020e1fb892-16c2-4e5e-a601-0           0837917418        website                                       website                                       6499c5572032f@aluvegh.co.za                                             Guest Name is: 0e1fb892-16c2-4e5e-a601-0                                                                    2023-06-2614505VT000260.87
00808Upstairs+King+Room2                 0000005002023-07-172023-07-18Benedict                            0837917431        website                                       website                                       6499b8e3364e6@aluvegh.co.za                                             Guest Name is: Benedict                                                                                     2023-06-2614505TP000000500
00808Upstairs+King+Room2                 0000005002023-07-172023-07-18Benedict                            0837917431        website                                       website                                       6499b8e3364e6@aluvegh.co.za                                             Guest Name is: Benedict                                                                                     2023-06-2614505GL000434.78
00808Upstairs+King+Room2                 0000005002023-07-172023-07-18Benedict                            0837917431        website                                       website                                       6499b8e3364e6@aluvegh.co.za                                             Guest Name is: Benedict                                                                                     2023-06-2614505VT000065.22
00807Upstairs+King+Room2                 0000005002023-07-172023-07-18Benedict                            0837917431        website                                       website                                       6499b8d9a4745@aluvegh.co.za                                             Guest Name is: Benedict                                                                                     2023-06-2614505TP000000500
00807Upstairs+King+Room2                 0000005002023-07-172023-07-18Benedict                            0837917431        website                                       website                                       6499b8d9a4745@aluvegh.co.za                                             Guest Name is: Benedict                                                                                     2023-06-2614505GL000434.78
00807Upstairs+King+Room2                 0000005002023-07-172023-07-18Benedict                            0837917431        website                                       website                                       6499b8d9a4745@aluvegh.co.za                                             Guest Name is: Benedict                                                                                     2023-06-2614505VT000065.22
00809Upstairs+King+Room2                 0000005002023-07-172023-07-18Benedict                            0837917431        website                                       website                                       6499b9dc2b758@aluvegh.co.za                                             Guest Name is: Benedict                                                                                     2023-06-2614505TP000000500
00809Upstairs+King+Room2                 0000005002023-07-172023-07-18Benedict                            0837917431        website                                       website                                       6499b9dc2b758@aluvegh.co.za                                             Guest Name is: Benedict                                                                                     2023-06-2614505GL000434.78
00809Upstairs+King+Room2                 0000005002023-07-172023-07-18Benedict                            0837917431        website                                       website                                       6499b9dc2b758@aluvegh.co.za                                             Guest Name is: Benedict                                                                                     2023-06-2614505VT000065.22
00806Upstairs+King+Room2                 0000005002023-07-252023-07-26new name                            +83791743035      website                                       website                                       6499b69780b64@aluvegh.co.za                                             Guest Name is: new name                                                                                     2023-06-2614505TP000000500
00806Upstairs+King+Room2                 0000005002023-07-252023-07-26new name                            +83791743035      website                                       website                                       6499b69780b64@aluvegh.co.za                                             Guest Name is: new name                                                                                     2023-06-2614505GL000434.78
00806Upstairs+King+Room2                 0000005002023-07-252023-07-26new name                            +83791743035      website                                       website                                       6499b69780b64@aluvegh.co.za                                             Guest Name is: new name                                                                                     2023-06-2614505VT000065.22
00805Upstairs+King+Room2                 0000005002023-07-262023-07-27Benzo                               +83791743034      website                                       website                                       649933208be11@aluvegh.co.za                                             Guest Name is: Benzo                                                                                        2023-06-2614505TP000000500
00805Upstairs+King+Room2                 0000005002023-07-262023-07-27Benzo                               +83791743034      website                                       website                                       649933208be11@aluvegh.co.za                                             Guest Name is: Benzo                                                                                        2023-06-2614505GL000434.78
00805Upstairs+King+Room2                 0000005002023-07-262023-07-27Benzo                               +83791743034      website                                       website                                       649933208be11@aluvegh.co.za                                             Guest Name is: Benzo                                                                                        2023-06-2614505VT000065.22
00804Upstairs+King+Room2                 0000005002023-07-262023-07-27Benzo                               +83791743034      website                                       website                                       64984b90831cc@aluvegh.co.za                                             Guest Name is: Benzo                                                                                        2023-06-2514505TP000000500
00804Upstairs+King+Room2                 0000005002023-07-262023-07-27Benzo                               +83791743034      website                                       website                                       64984b90831cc@aluvegh.co.za                                             Guest Name is: Benzo                                                                                        2023-06-2514505GL000434.78
00804Upstairs+King+Room2                 0000005002023-07-262023-07-27Benzo                               +83791743034      website                                       website                                       64984b90831cc@aluvegh.co.za                                             Guest Name is: Benzo                                                                                        2023-06-2514505VT000065.22
